:100000000C94E0020C9408030C9408030C9408036D
:100010000C9408030C9408030C9408030C94080334
:100020000C9408030C9408030C9408030C94080324
:100030000C9408030C9408030C9408030C94080314
:100040000C94B20C0C9408030C9408030C94080351
:100050000C9408030C9408030C9408030C940803F4
:100060000C9408030C94080300000000003E5B4F52
:100070005B3E3E6B4F6B3E1C3E7C3E1C183C7E3C08
:10008000181C577D571C1C5E7F5E1C00183C180016
:10009000FFE7C3E7FF0018241800FFE7DBE7FF30A6
:1000A000483A060E2629792926407F050507407F14
:1000B00005253F5A3CE73C5A7F3E1C1C08081C1C87
:1000C0003E7F14227F22145F5F005F5F06097F017D
:1000D0007F006689956A606060606094A2FFA29468
:1000E00008047E040810207E201008082A1C080836
:1000F0001C2A08081E101010100C1E0C1E0C303884
:100100003E3830060E3E0E06000000000000005F84
:1001100000000007000700147F147F14242A7F2AA0
:100120001223130864623649562050000807030062
:10013000001C2241000041221C002A1C7F1C2A08AE
:10014000083E080800807030000808080808000011
:1001500060600020100804023E5149453E00427F85
:10016000400072494949462141494D331814127FD4
:100170001027454545393C4A494931412111090774
:100180003649494936464949291E000014000000F5
:1001900040340000000814224114141414140041C7
:1001A00022140802015909063E415D594E7C121184
:1001B000127C7F494949363E414141227F414141BC
:1001C0003E7F494949417F090909013E4141517337
:1001D0007F0808087F00417F41002040413F017FA8
:1001E000081422417F404040407F021C027F7F0470
:1001F00008107F3E4141413E7F090909063E4151B9
:10020000215E7F09192946264949493203017F01A8
:10021000033F4040403F1F2040201F3F4038403FA9
:10022000631408146303047804036159494D4300BF
:100230007F4141410204081020004141417F0402F6
:10024000010204404040404000030708002054548D
:1002500078407F284444383844444428384444286B
:100260007F385454541800087E090218A4A49C78BE
:100270007F0804047800447D40002040403D007F1A
:100280001028440000417F40007C047804787C08FA
:100290000404783844444438FC18242418182424CE
:1002A00018FC7C08040408485454542404043F44B3
:1002B000243C4040207C1C2040201C3C4030403CE2
:1002C00044281028444C9090907C4464544C440042
:1002D00008364100000077000000413608000201A6
:1002E0000204023C2623263C1EA1A161123A404092
:1002F000207A38545455592155557941225454780F
:1003000042215554784020545579400C1E527212A7
:100310003955555559395454545939555454580030
:1003200000457C410002457D420001457C407D1234
:1003300011127DF0282528F07C5455450020545496
:100340007C547C0A097F4932494949323A44444441
:100350003A324A4848303A4141217A3A424020787C
:10036000009DA0A07D3D4242423D3D4040403D3C7D
:1003700024FF2424487E4943662B2FFC2F2BFF09A2
:1003800029F620C0887E0903205454794100004496
:100390007D413048484A32384040227A007A0A0A81
:1003A000727D0D19317D2629292F282629292926F4
:1003B00030484D4020380808080808080808382F39
:1003C00010C8ACBA2F102834FA00007B00000814C3
:1003D0002A142222142A1408AA005500AAAA55AAEF
:1003E00055AA000000FF00101010FF00141414FFA5
:1003F000001010FF00FF1010F010F0141414FC0097
:100400001414F700FF0000FF00FF1414F404FC14A0
:100410001417101F10101F101F1414141F00101099
:1004200010F0000000001F101010101F101010100E
:10043000F010000000FF101010101010101010FF2E
:1004400010000000FF140000FF00FF00001F101745
:100450000000FC04F414141710171414F404F4002E
:1004600000FF00F714141414141414F700F71414F4
:1004700014171410101F101F141414F4141010F07B
:1004800010F000001F101F0000001F14000000FCEF
:10049000140000F010F01010FF10FF141414FF14DB
:1004A0001010101F00000000F010FFFFFFFFFFF012
:1004B000F0F0F0F0FFFFFF0000000000FFFF0F0F63
:1004C0000F0F0F3844443844FC4A4A4A347E020233
:1004D0000606027E027E0263554941633844443C6D
:1004E00004407E201E2006027E020299A5E7A599FF
:1004F0001C2A492A1C4C7201724C304A4D4D303036
:1005000048784830BC625A463D3E494949007E0120
:1005100001017E2A2A2A2A2A44445F444440514A3F
:10052000444040444A51400000FF0103E080FF0086
:100530000008086B6B083612362436060F090F06C2
:10054000000018180000001010003040FF010100EA
:100550001F01011E00191D1712003C3C3C3C00000D
:100560000000000000000800020100000304070072
:10057000000000000000000102040810204080017B
:1005800002040810200102040810200404040404DA
:100590000404040202020202020303030303030031
:1005A000000000230026002900000000002500288C
:1005B000002B0000000000240027002A000009048E
:1005C00011241FBECFEFD8E0DEBFCDBF13E0A0E007
:1005D000B1E0EEE1F4E202C005900D92AE35B10754
:1005E000D9F723E0AEE5B3E001C01D92A239B2070E
:1005F000E1F715E0C0ECD5E004C02297FE010E94AF
:10060000DD10CE3BD107C9F70E94A10C0C940D124E
:100610000C940000CF93DF93EC01198218821B82A7
:100620001A821D821C8260E082E00E94B70D60E0A9
:1006300083E00E94B70D60E084E00E94B70D86E081
:1006400090E09F838E8319861886DF91CF9108955D
:10065000CF92DF92EF92FF920F931F93CF93DF938E
:10066000CDB7DEB7A2970FB6F894DEBF0FBECDBFF1
:100670008AE0E82E00E02CE04BE06DE0CE01019630
:100680000E94E40544E068E2CE0101960E94DD0686
:1006900066E4CE0101960E948006CE0101960E947A
:1006A000970660ED77E080E090E00E942B0DCE0190
:1006B00001960E946D0761E0CE0101960E94580AE2
:1006C00061E070E0CE0101960E945E0A40E050E0D9
:1006D00060E070E0CE0101960E94520A62E073E091
:1006E000CE0101960E94CD0A41E050E060E070E04A
:1006F000CE0101960E94640A22E030E048ED5FE0FE
:1007000069E470E4CE0101960E948C0C62E0CE0197
:1007100001960E94580A61E070E0CE0101960E94A5
:100720005E0A60E173E0CE0101960E94B00A20E10A
:1007300030E04FEE5EEB6DEA7EEDCE0101960E9459
:100740008F0BCE0101960E94970660ED77E080E066
:1007500090E00E942B0DE981FA81C484D584CE01FA
:1007600001960E946E0A8C01CE0101960E946A0ACF
:10077000EE24E394F12C9C0140E050E060E070E056
:10078000CE010196F6010995A2960FB6F894DEBF48
:100790000FBECDBFDF91CF911F910F91FF90EF90D2
:1007A000DF90CF900895CF93DF93EC0182E00E9419
:1007B000260E9983888383E00E94260E9B838A837A
:1007C00084E00E94260E9D838C83DF91CF91089553
:1007D000EF92FF920F931F938EEDE82E87E0F82E95
:1007E0000BE010E02CE130E040E050E060E070E031
:1007F00080E090E00E943E051F910F91FF90EF90E6
:10080000089586E693E00E94D30386E693E00C9475
:100810002803CF93DF9386E693E00E940A0382E1E8
:1008200090E00E94B00CEC010E943E04D0935F0364
:10083000C0935E0382E190E00E94B00CEC010E9444
:100840003E04D0936103C093600382E190E00E9474
:10085000B00CEC010E943E04D0936303C09362038A
:1008600082E190E00E94B00CEC010E943E04D09323
:100870006503C0936403DF91CF910895FC0187E085
:10088000DF011D928A95E9F7178282E090E0938755
:100890008287118610861586148617861686118A19
:1008A000108A08956F927F928F929F92AF92BF921B
:1008B000CF92DF92EF92FF920F931F93CF93DF932C
:1008C000FC01C680AC2DB0E020E833E341EE51E0FE
:1008D0000E94B4104B015C0122EB37E06D01C4E6CD
:1008E000D0E000E911E0C901825B97408C159D05BD
:1008F000DCF4C90183709927892B99F4C901BE01E1
:100900000E946F10892B31F4C901B8010E946F1049
:10091000892B39F480E8880E81E5981E81E0A81EB5
:10092000B11C2F5F3F4FDFCF6580712C8EE4C81A5A
:1009300088EFD80AC60164E670E00E946F108C014F
:10094000C60160E971E00E946F107C01C1E0D0E057
:1009500083E0C822DD24C615D7052CF5C230D105A9
:1009600089F4C114D10471F40115110519F4E114CD
:10097000F10441F480E8880E8BE3981E86E2A81EFD
:10098000B11C0FC0DE01AE5EBC4FAC91B0E020E800
:1009900031E541E050E00E94B410860E971EA81E7B
:1009A000B91E2196D8CF4181228130E0A0E1BEE07E
:1009B0000E94A5106B017C01242F30E0ACE3B0E075
:1009C0000E94A510C60ED71EE81EF91E8081C80E13
:1009D000D11CE11CF11CA481B0E0119720E831E5A5
:1009E00041E050E00E94BF10C60ED71EE81EF91E5F
:1009F000C80CD91CEA1CFB1CC701B601DF91CF91C2
:100A00001F910F91FF90EF90DF90CF90BF90AF902C
:100A10009F908F907F906F9008950F931F93609396
:100A20007A0370937B0380937C0390937D03009102
:100A30000601109107012091080130910901060F6C
:100A4000171F281F391F00937203109373032093FD
:100A500074033093750382E090E090937103809368
:100A600070030E94FC0C609376037093770380936D
:100A70007803909379031F910F910895EF92FF925D
:100A80000F9394E6E916F1042CF092EBE91A97E043
:100A9000F90A03C09EE1E90EF11CE0928403009381
:100AA0008303209382038093800360937F034093AA
:100AB0007E038EE793E00E9452040F91FF90EF9027
:100AC0000C940D0561E08AE00E94F00D61E08AE07F
:100AD0000E94B70D8CB580618CBD8CB580648CBDD7
:100AE00061E08DE00E94B70D61E08BE00C94B70DE2
:100AF000FC0177FD68C080859185681779070CF047
:100B000062C057FD60C082859385481759070CF075
:100B10005AC08589823059F08330B1F08130D1F4E8
:100B20008FE290E0861B970BBA01AC0113C083E5FE
:100B300090E0FC01E61BF70BBF018FE290E0FC01A7
:100B4000E41BF50BAF0106C083E590E0841B950B19
:100B5000AB01BC0164357105B0F54033510598F522
:100B6000CA01E3E095958795EA95E1F74770552727
:100B7000232BA1F024E5289FF001299FF00D1124DB
:100B8000E60FF71FE65FFE4F81E090E0042E01C004
:100B9000880F0A94EAF79081982B14C024E5289FC7
:100BA000F001299FF00D1124E60FF71FE65FFE4FBD
:100BB00081E090E0042E01C0880F0A94EAF7809546
:100BC0009081982390830895CF92DF92EF92FF92C5
:100BD0000F931F93CF93DF931F92CDB7DEB76C01B6
:100BE000162FF42E40E350E064E570E029830E9464
:100BF000080983E293E0F60191838083F78A108FDE
:100C00002981218FE28E038F0F90DF91CF911F9169
:100C10000F91FF90EF90DF90CF900895FC018789AE
:100C20008F3F21F481E0908D9F3F09F080E008958F
:100C30000F931F93CF93DF931F92CDB7DEB78C0135
:100C400069830E940E066981882339F06EBD000019
:100C50000DB407FEFDCF8EB52DC088E090E030E8E2
:100C6000D8015E96ED91FC915F97408191962C9111
:100C700091972095242320835C96ED91FC915D97BC
:100C800090962C91432F462321F04081422B4083A4
:100C900004C04081209524232083D8015E96ED91E5
:100CA000FC915F97208191964C91242B208336955F
:100CB0000197B1F60F90DF91CF911F910F91089599
:100CC0001F93CF93DF93EC01162F60E0898D0E9474
:100CD000F00D8B8D18161CF460E00E94F00D612F52
:100CE000CE010E9418068B8D181634F461E0DF9156
:100CF000CF911F910C94F00DDF91CF911F9108952A
:100D00001F93CF93DF93EC01162F67FD1FE761E27E
:100D1000CE010E946006612F6068CE010E946006CD
:100D200060E2CE01DF91CF911F910C946006DF92BB
:100D3000EF92FF920F931F93CF93DF93EC01FAE0B2
:100D4000EF2EF1E0FF2ED12C6D2D6064CE010E94BC
:100D5000600660E8CE010E94600661E0898D0E9415
:100D6000F00D8B8D18161CF460E00E94F00D00E071
:100D700010E0F701E00FF11F6081CE010E9418061C
:100D80000F5F1F4F04351105A1F78B8D18161CF44A
:100D900061E00E94F00DD39484E5E80EF11C86E03A
:100DA000D812D2CF60E4CE01DF91CF911F910F9185
:100DB000FF90EF90DF900C9460060F931F93CF93FA
:100DC000DF93EC01162F042F0E940E06882379F082
:100DD0000E9462058CB58C7F8CBD8DB58E7F8DBDDC
:100DE0008CB5837F8CBD8CB58F7D8CBD34C061E0AC
:100DF0008F890E94B70D61E0888D0E94B70D888DA4
:100E0000992787FD9095FC01E557FA4FE491F0E0B2
:100E1000EE0FFF1FE755FA4F259134913F8F2E8F2C
:100E2000FC01E958FA4F849189A38F89992787FD9E
:100E30009095FC01E557FA4FE491F0E0EE0FFF1FAB
:100E4000E755FA4F259134913D8F2C8FFC01E958DD
:100E5000FA4F849188A361E0898D0E94B70D8A8D35
:100E600018161CF461E00E94B70D8B8D18161CF447
:100E700061E00E94B70D8A8D181684F460E00E942C
:100E8000F00D2FEF89E698E1215080409040E1F786
:100E900000C0000061E08A8D0E94F00D61E2CE0189
:100EA0000E946006602F6061CE010E94600617FDFF
:100EB0001FE7612F6068CE010E94600660E2CE01EC
:100EC0000E9460066CE0CE010E946006CE01DF91B8
:100ED000CF911F910F910C94970628EF31E0EAE033
:100EE000F1E0DF01A9011D9241505040E1F7DC0122
:100EF0001D961C921E921C971F961C921E921E9766
:100F000008952F923F924F925F926F927F928F92AD
:100F10009F92AF92BF92CF92DF92EF92FF920F9388
:100F20001F93CF93DF9300D000D0CDB7DEB74C0135
:100F30007C836B836A015901C8018701AC014C199C
:100F40005D0957FF03C051954195510995016B818A
:100F50007C81261B370B37FF03C031952195310962
:100F600022242394312C2417350714F0212C312C02
:100F70002114310459F03A2D2B2D5C01832F922F2F
:100F80003B812C81DC82CB82C32ED22EAB81BC81F3
:100F9000AA16BB065CF43C2D2D2D6C01832F922FDD
:100FA0003B812C81BC82AB82A32EB22E2501EB812A
:100FB000FC814E1A5F0A3C016C187D0877FE03C065
:100FC000719461947108720157FE03C0FFEFEF1A2C
:100FD000FF0AF594E794C816D9062CF421E030E016
:100FE0003A83298324C06FEF7FEF7A8369831FC020
:100FF000D401ED91FC910480F581E02D980121143C
:101000003104D9F04B815C81B601C4010995E61821
:10101000F708F7FE06C0E981FA81CE0EDF1EE40C68
:10102000F51C2B813C812F5F3F4F3C832B836B81D1
:101030007C81A616B706E4F604C0A6016B817C810C
:10104000E4CF0F900F900F900F90DF91CF911F91F1
:101050000F91FF90EF90DF90CF90BF90AF909F9057
:101060008F907F906F905F904F903F902F9008955A
:101070006F927F928F929F92AF92BF92CF92DF92A8
:10108000EF92FF920F931F93CF93DF93EC015B01DD
:101090006A0139014801E881F9810284F385E02D74
:1010A00087010995E881F981A601480D591D415034
:1010B00051090284F385E02D9301B501CE01099514
:1010C000E881F9810084F185E02D9401A601B50144
:1010D000CE010995E881F981B501660D771D615052
:1010E00071090084F185E02D9401A601CE010995D6
:1010F000DF91CF911F910F91FF90EF90DF90CF90F4
:10110000BF90AF909F908F907F906F900895EF92D7
:10111000FF920F931F93DC01ED91FC91240F351F7B
:10112000215031090680F781E02D780189019B016A
:1011300009951F910F91FF90EF900895EF92FF9204
:101140000F931F93DC01ED91FC91260F371F215067
:1011500031090680F781E02D78018A0109951F91F8
:101160000F91FF90EF9008956F927F928F929F92D0
:10117000AF92BF92CF92DF92EF92FF920F931F93A5
:10118000CF93DF935C014A0169013801EB01C60E80
:10119000D71ECC15DD0574F4D501ED91FC910084CA
:1011A000F185E02D87019301A401BE01C5010995D8
:1011B0002196EFCFDF91CF911F910F91FF90EF908C
:1011C000DF90CF90BF90AF909F908F907F906F9067
:1011D0000895EF92FF920F931F93DC01ED91FC9124
:1011E00011971A960D911C911B9718962D913C9171
:1011F00019970684F785E02D7B0140E050E060E020
:1012000070E009951F910F91FF90EF900895089558
:10121000FC01138212828BE393E0918380837583B8
:101220006483578346837187608753874287158A13
:10123000158614861786168621E0248B8FEF9FEF84
:10124000938B828B918B808B268B08952F923F926C
:101250004F925F926F927F928F929F92AF92BF92C6
:10126000CF92DF92EF92FF920F931F93CF93DF9372
:10127000CDB7DEB72C970FB6F894DEBF0FBECDBF4B
:101280009C878B873A0118870F83FA86E986CD827F
:10129000DC0118968D919C911997681779070CF0CD
:1012A00094C01A968D919C911B97481759070CF082
:1012B0008CC08C2C912CCB01B6E0CB9E800D911D67
:1012C0001124181619060CF080C0C40153E0880FD1
:1012D000991F5A95E1F7860D971D181619060CF0FF
:1012E00074C0F5E02F9F200111245B016B011C826B
:1012F000920128593F4F2901461A570A3C8135303F
:1013000031F0F201EA0DFB1D44914B8301C01B82B9
:101310007A82698213011E828B8180FF13C0AB85A4
:10132000BC85ED91FC91BD81B13031F40480F58133
:10133000E02D2F81388519C00684F785E02DEF80D8
:10134000F8841EC0E985FA852F813885E217F307F6
:10135000F9F0AB85BC85ED91FC91BD81B13059F4BC
:101360000480F581E02D29853A85A101B5018B85A1
:101370009C8509950DC00684F785E02DE984FA84E3
:101380008401940149815A81B6018B859C85099518
:10139000EB81E695EB83FE81FF5FFE8329813A8135
:1013A000280D391D3A8329833FEF231A330AF83079
:1013B00009F0B2CF4C814F5F4C83C80CD91C8FEF22
:1013C000A81AB80A463009F099CF2C960FB6F894AF
:1013D000DEBF0FBECDBFDF91CF911F910F91FF9068
:1013E000EF90DF90CF90BF90AF909F908F907F90C5
:1013F0006F905F904F903F902F900895CF92EF9213
:10140000FF920F931F93CF93DF93EC01262F6A3047
:1014100049F42C898E859F8538E0239F800D911D8E
:10142000112432C06D30A1F1EA88FB88088919893E
:101430004E855F856C857D85CC880E9426092C8928
:10144000422F50E08C859D8536E0239F800D911DB5
:1014500011249D878C872E892223D1F06AEF6403A3
:101460009001659F300D112468857985260F371FFF
:10147000281739076CF463E0440F551F6A95E1F7AC
:101480008E859F85840F951F9F878E871D861C865E
:1014900081E090E0DF91CF911F910F91FF90EF904D
:1014A000CF900895FC017587648757874687089514
:1014B000611101C061E0FC01648B0895FC01738B34
:1014C000628B718B608B0895FC01718B608B538BE9
:1014D000428B0895FC01808591850895FC018285E9
:1014E00093850895CF92DF92EF92FF920F931F930F
:1014F000CF93DF936C017A01EB01E60EF71E00E05B
:1015000010E0CE15DF0561F06991D601ED91FC91F7
:101510000190F081E02DC6010995080F191FF1CF48
:10152000C801DF91CF911F910F91FF90EF90DF9055
:10153000CF9008956115710581F0DB010D900020B9
:10154000E9F7AD0141505109461B570BDC01ED9104
:10155000FC910280F381E02D099480E090E00895F1
:101560000C949A0ADC01ED91FC910190F081E02D40
:1015700009940F931F93CF93DF93EC016DE00E94CA
:10158000B20A8C016AE0CE010E94B20A800F911F5C
:10159000DF91CF911F910F9108950F931F93CF93D8
:1015A000DF93EC010E949A0A8C01CE010E94B90AD5
:1015B000800F911FDF91CF911F910F9108958F920E
:1015C0009F92AF92BF92CF92DF92EF92FF920F93D2
:1015D0001F93CF93DF93CDB7DEB7A1970FB6F894E3
:1015E000DEBF0FBECDBF7C01C42EE52FCB01D22EB6
:1015F00019A221E02D1510F02AE0D22E8E010F5DE8
:101600001F4F8D2C912CA12CB12C6C2D7E2FA50160
:1016100094010E9483108C2DD29E801911240150B8
:1016200011098A3014F4805D01C0895CF80180835F
:10163000211531054105510521F0C22EE32FCA01C4
:10164000E4CFB801C7010E949A0AA1960FB6F89498
:10165000DEBF0FBECDBFDF91CF911F910F91FF90E5
:10166000EF90DF90CF90BF90AF909F908F900895B4
:10167000CF92DF92EF92FF920F931F93CF93DF935E
:10168000EC016A017B012115310579F4E881F981CA
:101690000190F081E02D642FDF91CF911F910F9188
:1016A000FF90EF90DF90CF9009942A303105E9F454
:1016B00077FF1AC06DE20E94B20A8C0144275527B9
:1016C000BA014C195D096E097F092AE0CE010E941A
:1016D000DF0A800F911FDF91CF911F910F91FF9033
:1016E000EF90DF90CF9008952AE0B701A601CE01D8
:1016F000DF91CF911F910F91FF90EF90DF90CF90EE
:101700000C94DF0A2115310541F4DC01ED91FC91C7
:101710000190F081E02D642F09940C94DF0A0F935F
:101720001F93CF93DF93EC010E94820B8C01CE01BB
:101730000E94B90A800F911FDF91CF911F910F91E5
:1017400008954F925F926F927F928F929F92AF9285
:10175000BF92CF92DF92EF92FF920F931F93CF939E
:10176000DF93EC016A017B01B22E9A01AB01C70144
:10177000B6010E946B10882319F06FE473E027C054
:1017800026013701E89477F82FEF3FEF4FE75FE747
:10179000C301B2010E946B1081110DC02FEF3FEF0A
:1017A0004FE75FE7C301B2010E94B50E18161CF4A3
:1017B00063E573E00CC02FEF3FEF4FE75FE4C70135
:1017C000B6010E9404101816ACF467E573E0CE0170
:1017D000DF91CF911F910F91FF90EF90DF90CF900D
:1017E000BF90AF909F908F907F906F905F904F9041
:1017F0000C949A0A2FEF3FEF4FE75FECC701B60159
:101800000E94B50E87FDE1CF20E030E0A901C701BD
:10181000B6010E94B50E87FF0AC06DE2CE010E949C
:10182000B20A8C01F7FAF094F7F8F09402C000E0E5
:1018300010E0A12C60E070E080E09FE3AB1441F089
:1018400020E030E040E251E40E94B90EA394F6CFCC
:101850009B01AC01C701B6010E94510E6B017C01D6
:101860000E94260F2B013C010E94520F9B01AC01EC
:10187000C701B6010E94500E6B017C012AE0B30142
:10188000A201CE010E94DF0A080F191FBB2039F008
:101890006BE573E0CE010E949A0A080F191F7B2C9A
:1018A000772041F120E030E040E251E4C701B60189
:1018B0000E9408106B017C010E94210F4B01AA2499
:1018C00097FCA094BA2C2AE030E0B501A401CE0127
:1018D0000E94380B080F191FC501B4010E94540F54
:1018E0009B01AC01C701B6010E94500E6B017C0147
:1018F0007A94D6CFC801DF91CF911F910F91FF90BD
:10190000EF90DF90CF90BF90AF909F908F907F909F
:101910006F905F904F9008950F931F93CF93DF9335
:10192000EC010E94A10B8C01CE010E94B90A800F2C
:10193000911FDF91CF911F910F9108950E9408127E
:1019400008950E94530D0E94A00C0E94E803C0E07D
:10195000D0E00E9401042097E1F30E940000F9CF3B
:101960000C94E1101F920F920FB60F9211242F9337
:101970003F938F939F93AF93BF93809186039091F2
:101980008703A0918803B09189033091850323E0F8
:10199000230F2D3720F40196A11DB11D05C026E8A7
:1019A000230F0296A11DB11D20938503809386030A
:1019B00090938703A0938803B093890380918A034F
:1019C00090918B03A0918C03B0918D030196A11D82
:1019D000B11D80938A0390938B03A0938C03B093E3
:1019E0008D03BF91AF919F918F913F912F910F9058
:1019F0000FBE0F901F9018952FB7F8946091860333
:101A00007091870380918803909189032FBF089577
:101A10003FB7F89480918A0390918B03A0918C0337
:101A2000B0918D0326B5A89B05C02F3F19F00196F4
:101A3000A11DB11D3FBF6627782F892F9A2F620FF6
:101A4000711D811D911D42E0660F771F881F991F30
:101A50004A95D1F70895CF92DF92EF92FF92CF93FC
:101A6000DF936B017C010E94080DEB01C114D104CE
:101A7000E104F10489F00E944F0E0E94080D6C1BD6
:101A80007D0B683E734090F381E0C81AD108E108ED
:101A9000F108C851DC4FEACFDF91CF91FF90EF9072
:101AA000DF90CF900895789484B5826084BD84B52A
:101AB000816084BD85B5826085BD85B5816085BD49
:101AC000EEE6F0E0808181608083E1E8F0E0108262
:101AD000808182608083808181608083E0E8F0E0A3
:101AE000808181608083E1EBF0E08081846080838D
:101AF000E0EBF0E0808181608083EAE7F0E08081C4
:101B00008460808380818260808380818160808323
:101B10008081806880831092C1000895833081F0B5
:101B200028F4813099F08230A1F008958730A9F02F
:101B30008830B9F08430D1F4809180008F7D03C06B
:101B4000809180008F7780938000089584B58F778F
:101B500002C084B58F7D84BD08958091B0008F77D9
:101B600003C08091B0008F7D8093B0000895CF9323
:101B7000DF9390E0FC01E958FA4F2491FC01E5570E
:101B8000FA4F8491882349F190E0880F991FFC0156
:101B9000ED54FA4FA591B49187559A4FFC01C59128
:101BA000D4919FB7611108C0F8948C91209582233D
:101BB0008C93888182230AC0623051F4F8948C910E
:101BC000322F309583238C938881822B888304C0A5
:101BD000F8948C91822B8C939FBFDF91CF910895C5
:101BE0000F931F93CF93DF931F92CDB7DEB7282FAC
:101BF00030E0F901ED59FA4F8491F901E958FA4FB3
:101C00001491F901E557FA4F04910023C9F0882394
:101C100021F069830E948E0D6981E02FF0E0EE0FC4
:101C2000FF1FE755FA4FA591B4919FB7F8948C9197
:101C3000611103C01095812301C0812B8C939FBF3C
:101C40000F90DF91CF911F910F910895CF93DF9364
:101C5000282F30E0F901ED59FA4F8491F901E95844
:101C6000FA4FD491F901E557FA4FC491CC2391F082
:101C700081110E948E0DEC2FF0E0EE0FFF1FE15658
:101C8000FA4FA591B4912C912D2381E090E021F49D
:101C900080E002C080E090E0DF91CF910895089548
:101CA0005058BB27AA270ED075C166D130F06BD132
:101CB00020F031F49F3F11F41EF45BC10EF4E09567
:101CC000E7FB51C1E92F77D180F3BA176207730799
:101CD0008407950718F071F49EF58FC10EF4E09516
:101CE0000B2EBA2FA02D0B01B90190010C01CA01D6
:101CF000A0011124FF27591B99F0593F50F4503E81
:101D000068F11A16F040A22F232F342F4427585F72
:101D1000F3CF469537952795A795F0405395C9F78A
:101D20007EF41F16BA0B620B730B840BBAF0915042
:101D3000A1F0FF0FBB1F661F771F881FC2F70EC0E1
:101D4000BA0F621F731F841F48F4879577956795B4
:101D5000B795F7959E3F08F0B3CF9395880F08F09D
:101D60009927EE0F979587950895D9D008F481E0CB
:101D700008950CD00FC107D140F0FED030F021F40F
:101D80005F3F19F0F0C0511139C1F3C014D198F37D
:101D90009923C9F35523B1F3951B550BBB27AA27EC
:101DA00062177307840738F09F5F5F4F220F331F5E
:101DB000441FAA1FA9F333D00E2E3AF0E0E830D02A
:101DC00091505040E695001CCAF729D0FE2F27D02D
:101DD000660F771F881FBB1F261737074807AB07FB
:101DE000B0E809F0BB0B802DBF01FF2793585F4F70
:101DF0002AF09E3F510568F0B6C000C15F3FECF38A
:101E0000983EDCF3869577956795B795F7959F5F34
:101E1000C9F7880F911D9695879597F90895E1E088
:101E2000660F771F881FBB1F621773078407BA07E7
:101E300020F0621B730B840BBA0BEE1F88F7E09542
:101E4000089504D06894B111D9C00895BCD088F029
:101E50009F5790F0B92F9927B751A0F0D1F0660F96
:101E6000771F881F991F1AF0BA95C9F712C0B130B1
:101E700081F0C3D0B1E00895C0C0672F782F8827C4
:101E8000B85F39F0B93FCCF3869577956795B395F0
:101E9000D9F73EF490958095709561957F4F8F4F5F
:101EA0009F4F0895E89409C097FB3EF49095809564
:101EB000709561957F4F8F4F9F4F9923A9F0F92F10
:101EC00096E9BB279395F695879577956795B7958E
:101ED000F111F8CFFAF4BB0F11F460FF1BC06F5F74
:101EE0007F4F8F4F9F4F16C0882311F096E911C086
:101EF000772321F09EE8872F762F05C0662371F0A7
:101F000096E8862F70E060E02AF09A95660F771FBA
:101F1000881FDAF7880F9695879597F90895990F96
:101F20000008550FAA0BE0E8FEEF16161706E807A3
:101F3000F907C0F012161306E407F50798F0621BC4
:101F4000730B840B950B39F40A2661F0232B242B99
:101F5000252B21F408950A2609F4A140A6958FEFB8
:101F6000811D811D089597F99F6780E870E060E00A
:101F700008959FEF80EC089500240A941616170622
:101F800018060906089500240A941216130614066A
:101F900005060895092E0394000C11F4882352F0CD
:101FA000BB0F40F4BF2B11F460FF04C06F5F7F4F85
:101FB0008F4F9F4F089557FD9058440F551F59F06C
:101FC0005F3F71F04795880F97FB991F61F09F3F26
:101FD00079F087950895121613061406551FF2CF4F
:101FE0004695F1DF08C0161617061806991FF1CF9F
:101FF00086957105610508940895E894BB276627C6
:102000007727CB0197F908958ADF08F48FEF0895B9
:102010000BD0C0CFB1DF28F0B6DF18F0952309F060
:10202000A2CFA7CF1124EACFC6DFA0F3959FD1F3AB
:10203000950F50E0551F629FF001729FBB27F00D76
:10204000B11D639FAA27F00DB11DAA1F649F6627CB
:10205000B00DA11D661F829F2227B00DA11D621F1A
:10206000739FB00DA11D621F839FA00D611D221FD4
:10207000749F3327A00D611D231F849F600D211DB8
:10208000822F762F6A2F11249F5750408AF0E1F05B
:1020900088234AF0EE0FFF1FBB1F661F771F881FA4
:1020A00091505040A9F79E3F510570F05CCFA6CFEC
:1020B0005F3FECF3983EDCF3869577956795B7958F
:1020C000F795E7959F5FC1F7FE2B880F911D9695B9
:1020D000879597F9089523DF880B990B089597FB4F
:1020E000072E16F4009407D077FD09D00E94C71080
:1020F00007FC05D03EF4909581959F4F089570950B
:1021000061957F4F0895A1E21A2EAA1BBB1BFD010A
:102110000DC0AA1FBB1FEE1FFF1FA217B307E407C6
:10212000F50720F0A21BB30BE40BF50B661F771F1E
:10213000881F991F1A9469F76095709580959095FE
:102140009B01AC01BD01CF010895A29FB001B39FD7
:10215000C001A39F700D811D1124911DB29F700DB0
:10216000811D1124911D08950E94A510A59F900D19
:10217000B49F900DA49F800D911D11240895B7FF69
:102180000C94B4100E94B410821B930B0895AA1BE8
:10219000BB1B51E107C0AA1FBB1FA617B70710F052
:1021A000A61BB70B881F991F5A95A9F78095909584
:1021B000BC01CD010895EE0FFF1F0590F491E02DB5
:1021C0000994CF93DF938230910510F482E090E080
:1021D000E0919003F091910320E030E0A0E0B0E0C6
:1021E000309739F14081518148175907B8F04817A5
:1021F000590771F482819381109729F013969C936B
:102200008E9312972CC0909391038093900327C0D4
:102210002115310531F04217530718F0A901DB01F0
:1022200001C0EF019A01BD01DF010280F381E02DC1
:10223000D7CF21153105F9F0281B390B2430310592
:1022400080F48A819B816115710521F0FB019383E4
:10225000828304C09093910380939003FE01329691
:1022600044C0FE01E20FF31F819391932250310984
:10227000398328833AC020918E0330918F03232B1A
:1022800041F4209102013091030130938F03209398
:102290008E0320910001309101012115310541F497
:1022A0002DB73EB74091040150910501241B350B19
:1022B000E0918E03F0918F03E217F307A0F42E1B39
:1022C0003F0B2817390778F0AC014E5F5F4F24179A
:1022D000350748F04E0F5F1F50938F0340938E03D6
:1022E0008193919302C0E0E0F0E0CF01DF91CF91C4
:1022F0000895CF93DF93009709F487C0FC013297CC
:1023000013821282C0919003D0919103209781F49F
:1023100020813181280F391F80918E0390918F0386
:102320008217930779F5F0938F03E0938E036DC0C6
:10233000DE0120E030E0AE17BF0750F412964D9159
:102340005C9113979D014115510509F1DA01F3CF15
:10235000B383A28340815181840F951F8A179B0705
:1023600071F48D919C911197840F951F0296918322
:10237000808312968D919C9113979383828321156C
:10238000310529F4F0939103E09390033EC0D90105
:102390001396FC93EE9312974D915D91A40FB51F88
:1023A000EA17FB0779F480819181840F951F0296CB
:1023B000D90111969C938E938281938113969C935D
:1023C0008E931297E0E0F0E08A819B81009719F0EC
:1023D000FE01EC01F9CFCE01029628813981820FEE
:1023E000931F20918E0330918F032817390769F4CA
:1023F000309729F4109291031092900302C0138237
:102400001282D0938F03C0938E03DF91CF910895F2
:0E24100081E090E0F8940C940D12F894FFCF48
:10241E000000920380002C0100000000000000006C
:10242E00000000000000000000000000000000009E
:10243E00000000000000000000000000000000008E
:10244E00C0E0F0F8FCFCFEFFFCE000000000000025
:10245E00000000000000000000000000000000006E
:10246E00000000000000000000000000000000005E
:10247E00000000000000000000000000000000F856
:10248E00F8F8F8F8F8F8F8F8F8F8F8F0F0E0E0C036
:10249E0080C0FCFFFFFFFF7F3F7FFFFFFFFFFF00BE
:1024AE00000000000000000000000000000000001E
:1024BE00000000000000000000000000000000000E
:1024CE0000000000000000000000000000000000FE
:1024DE00000000000F1F3F7FFFFFFFFFFFFFFFFF0A
:1024EE00E7C7C7878F9F9FFFFFFFC1C0E0FCFFFFBD
:1024FE00FFFFFFFCFCFCFCFEFEFEFCFCF8F8F0E02F
:10250E00C0C000000000000000000000000000003D
:10251E0000000000000000000000000000000000AD
:10252E00000000000000000000000080C0E0F1FB91
:10253E00FFFFFFFFFF7F1F0F0F87E7FFFFFF1F1F2D
:10254E003FF9F8F8F8F8F8F8FDFFFFFFFFFFFFFF7F
:10255E00FFFF7F3F0F07010000000000000000009A
:10256E00000000000000000000000000000000005D
:10257E0000000000000000000000000000F0FEFF60
:10258E00FFFFFFFFFFFFFFFFFFFE7E3F3F0F1FFF1F
:10259E00FFFFFCF0E0F1FFFFFFFFFFFCF001010188
:1025AE000101010101000000000000000000000018
:1025BE00000000000000000000000000000000000D
:1025CE0000000000000000000000000000000000FD
:1025DE0000030303030303030301010101000000D1
:1025EE0000000000030F1F3F7F7FFFFFFFFF7F7F75
:1025FE001F030000000000000000000000000000AB
:10260E0000000000000000000000000000000000BC
:10261E00000048656C6C6F2C20776F726C64210023
:10262E003078001F1C1F1E1F1E1F1F1E1F1E1F0087
:10263E00000000FE09720A7805810787089E083897
:10264E0008B408E908070900000000FE09720A9E96
:10265E000C810787089E083808B408E90807096E38
:0E266E00616E00696E66006F7666002E0000D9
:00000001FF
